{
  "contractName": "LectureDApp",
  "abi": [
    {
      "inputs": [],
      "stateMutability": "nonpayable",
      "type": "constructor"
    },
    {
      "anonymous": false,
      "inputs": [
        {
          "indexed": false,
          "internalType": "uint256",
          "name": "id",
          "type": "uint256"
        },
        {
          "indexed": false,
          "internalType": "address",
          "name": "buyer",
          "type": "address"
        }
      ],
      "name": "LecturePurchased",
      "type": "event"
    },
    {
      "anonymous": false,
      "inputs": [
        {
          "indexed": false,
          "internalType": "uint256",
          "name": "id",
          "type": "uint256"
        },
        {
          "indexed": false,
          "internalType": "string",
          "name": "link",
          "type": "string"
        },
        {
          "indexed": false,
          "internalType": "string",
          "name": "information",
          "type": "string"
        },
        {
          "indexed": false,
          "internalType": "uint256",
          "name": "price",
          "type": "uint256"
        }
      ],
      "name": "LectureUploaded",
      "type": "event"
    },
    {
      "inputs": [
        {
          "internalType": "address",
          "name": "",
          "type": "address"
        }
      ],
      "name": "isTeacher",
      "outputs": [
        {
          "internalType": "bool",
          "name": "",
          "type": "bool"
        }
      ],
      "stateMutability": "view",
      "type": "function",
      "constant": true
    },
    {
      "inputs": [],
      "name": "lectureCount",
      "outputs": [
        {
          "internalType": "uint256",
          "name": "",
          "type": "uint256"
        }
      ],
      "stateMutability": "view",
      "type": "function",
      "constant": true
    },
    {
      "inputs": [
        {
          "internalType": "uint256",
          "name": "",
          "type": "uint256"
        }
      ],
      "name": "lectures",
      "outputs": [
        {
          "internalType": "uint256",
          "name": "id",
          "type": "uint256"
        },
        {
          "internalType": "string",
          "name": "link",
          "type": "string"
        },
        {
          "internalType": "string",
          "name": "information",
          "type": "string"
        },
        {
          "internalType": "uint256",
          "name": "price",
          "type": "uint256"
        },
        {
          "internalType": "address payable",
          "name": "teacher",
          "type": "address"
        }
      ],
      "stateMutability": "view",
      "type": "function",
      "constant": true
    },
    {
      "inputs": [
        {
          "internalType": "address",
          "name": "",
          "type": "address"
        }
      ],
      "name": "userBalances",
      "outputs": [
        {
          "internalType": "uint256",
          "name": "",
          "type": "uint256"
        }
      ],
      "stateMutability": "view",
      "type": "function",
      "constant": true
    },
    {
      "inputs": [
        {
          "internalType": "address",
          "name": "_teacher",
          "type": "address"
        }
      ],
      "name": "addTeacher",
      "outputs": [],
      "stateMutability": "nonpayable",
      "type": "function"
    },
    {
      "inputs": [
        {
          "internalType": "string",
          "name": "_link",
          "type": "string"
        },
        {
          "internalType": "string",
          "name": "_information",
          "type": "string"
        },
        {
          "internalType": "uint256",
          "name": "_price",
          "type": "uint256"
        }
      ],
      "name": "uploadLecture",
      "outputs": [],
      "stateMutability": "nonpayable",
      "type": "function"
    },
    {
      "inputs": [],
      "name": "viewAvailableLectures",
      "outputs": [
        {
          "components": [
            {
              "internalType": "uint256",
              "name": "id",
              "type": "uint256"
            },
            {
              "internalType": "string",
              "name": "link",
              "type": "string"
            },
            {
              "internalType": "string",
              "name": "information",
              "type": "string"
            },
            {
              "internalType": "uint256",
              "name": "price",
              "type": "uint256"
            },
            {
              "internalType": "address payable",
              "name": "teacher",
              "type": "address"
            }
          ],
          "internalType": "struct LectureDApp.Lecture[]",
          "name": "",
          "type": "tuple[]"
        }
      ],
      "stateMutability": "view",
      "type": "function",
      "constant": true
    },
    {
      "inputs": [
        {
          "internalType": "uint256",
          "name": "_id",
          "type": "uint256"
        }
      ],
      "name": "purchaseLecture",
      "outputs": [],
      "stateMutability": "payable",
      "type": "function",
      "payable": true
    }
  ],
  "bytecode": "0x6080604052600060025534801561001557600080fd5b5060016000803373ffffffffffffffffffffffffffffffffffffffff1673ffffffffffffffffffffffffffffffffffffffff16815260200190815260200160002060006101000a81548160ff0219169083151502179055506115d78061007c6000396000f3fe60806040526004361061007b5760003560e01c80637f1dfa6b1161004e5780637f1dfa6b1461013a57806383cde3d2146101565780638d82404f14610197578063aec37eb3146101c25761007b565b80631b87f2091461008057806326224c64146100a95780633bc6e309146100e657806361e48e201461010f575b600080fd5b34801561008c57600080fd5b506100a760048036038101906100a29190610d18565b6101ff565b005b3480156100b557600080fd5b506100d060048036038101906100cb9190610cef565b610423565b6040516100dd9190611175565b60405180910390f35b3480156100f257600080fd5b5061010d60048036038101906101089190610cef565b61043b565b005b34801561011b57600080fd5b50610124610520565b60405161013191906110b8565b60405180910390f35b610154600480360381019061014f9190610d97565b6107c9565b005b34801561016257600080fd5b5061017d60048036038101906101789190610d97565b6109e9565b60405161018e95949392919061120c565b60405180910390f35b3480156101a357600080fd5b506101ac610b4f565b6040516101b99190611175565b60405180910390f35b3480156101ce57600080fd5b506101e960048036038101906101e49190610cef565b610b55565b6040516101f691906110da565b60405180910390f35b6000803373ffffffffffffffffffffffffffffffffffffffff1673ffffffffffffffffffffffffffffffffffffffff16815260200190815260200160002060009054906101000a900460ff1661028a576040517f08c379a000000000000000000000000000000000000000000000000000000000815260040161028190611135565b60405180910390fd5b7f69e25c3074fdf920c0e5bb2edfb071877d682786c0943aac07ef38bc351abd006002600081546102ba9061148c565b9190508190558484846040516102d394939291906111b9565b60405180910390a16040518060a0016040528060025481526020018481526020018381526020018281526020013373ffffffffffffffffffffffffffffffffffffffff16815250600360006002548152602001908152602001600020600082015181600001556020820151816001019080519060200190610355929190610b75565b506040820151816002019080519060200190610372929190610b75565b506060820151816003015560808201518160040160006101000a81548173ffffffffffffffffffffffffffffffffffffffff021916908373ffffffffffffffffffffffffffffffffffffffff1602179055509050503360036000600254815260200190815260200160002060040160006101000a81548173ffffffffffffffffffffffffffffffffffffffff021916908373ffffffffffffffffffffffffffffffffffffffff160217905550505050565b60016020528060005260406000206000915090505481565b6000803373ffffffffffffffffffffffffffffffffffffffff1673ffffffffffffffffffffffffffffffffffffffff16815260200190815260200160002060009054906101000a900460ff166104c6576040517f08c379a00000000000000000000000000000000000000000000000000000000081526004016104bd90611135565b60405180910390fd5b60016000808373ffffffffffffffffffffffffffffffffffffffff1673ffffffffffffffffffffffffffffffffffffffff16815260200190815260200160002060006101000a81548160ff02191690831515021790555050565b6060600060025467ffffffffffffffff811115610566577f4e487b7100000000000000000000000000000000000000000000000000000000600052604160045260246000fd5b60405190808252806020026020018201604052801561059f57816020015b61058c610bfb565b8152602001906001900390816105845790505b5090506000600190505b60025481116107c157600360008281526020019081526020016000206040518060a0016040529081600082015481526020016001820180546105ea9061145a565b80601f01602080910402602001604051908101604052809291908181526020018280546106169061145a565b80156106635780601f1061063857610100808354040283529160200191610663565b820191906000526020600020905b81548152906001019060200180831161064657829003601f168201915b5050505050815260200160028201805461067c9061145a565b80601f01602080910402602001604051908101604052809291908181526020018280546106a89061145a565b80156106f55780601f106106ca576101008083540402835291602001916106f5565b820191906000526020600020905b8154815290600101906020018083116106d857829003601f168201915b50505050508152602001600382015481526020016004820160009054906101000a900473ffffffffffffffffffffffffffffffffffffffff1673ffffffffffffffffffffffffffffffffffffffff1673ffffffffffffffffffffffffffffffffffffffff16815250508260018361076c919061138a565b815181106107a3577f4e487b7100000000000000000000000000000000000000000000000000000000600052603260045260246000fd5b602002602001018190525080806107b99061148c565b9150506105a9565b508091505090565b6000811180156107db57506002548111155b61081a576040517f08c379a000000000000000000000000000000000000000000000000000000000815260040161081190611155565b60405180910390fd5b60006003600083815260200190815260200160002090506000816003015411610878576040517f08c379a000000000000000000000000000000000000000000000000000000000815260040161086f906110f5565b60405180910390fd5b80600301543410156108bf576040517f08c379a00000000000000000000000000000000000000000000000000000000081526004016108b690611115565b60405180910390fd5b8060040160009054906101000a900473ffffffffffffffffffffffffffffffffffffffff1673ffffffffffffffffffffffffffffffffffffffff166108fc82600301549081150290604051600060405180830381858888f1935050505015801561092d573d6000803e3d6000fd5b508060030154600160008360040160009054906101000a900473ffffffffffffffffffffffffffffffffffffffff1673ffffffffffffffffffffffffffffffffffffffff1673ffffffffffffffffffffffffffffffffffffffff16815260200190815260200160002060008282546109a59190611334565b925050819055507feba05010a9c2634fc7def0024c73a4000d74ce140ace34d66adf023075fe949c82336040516109dd929190611190565b60405180910390a15050565b6003602052806000526040600020600091509050806000015490806001018054610a129061145a565b80601f0160208091040260200160405190810160405280929190818152602001828054610a3e9061145a565b8015610a8b5780601f10610a6057610100808354040283529160200191610a8b565b820191906000526020600020905b815481529060010190602001808311610a6e57829003601f168201915b505050505090806002018054610aa09061145a565b80601f0160208091040260200160405190810160405280929190818152602001828054610acc9061145a565b8015610b195780601f10610aee57610100808354040283529160200191610b19565b820191906000526020600020905b815481529060010190602001808311610afc57829003601f168201915b5050505050908060030154908060040160009054906101000a900473ffffffffffffffffffffffffffffffffffffffff16905085565b60025481565b60006020528060005260406000206000915054906101000a900460ff1681565b828054610b819061145a565b90600052602060002090601f016020900481019282610ba35760008555610bea565b82601f10610bbc57805160ff1916838001178555610bea565b82800160010185558215610bea579182015b82811115610be9578251825591602001919060010190610bce565b5b509050610bf79190610c40565b5090565b6040518060a0016040528060008152602001606081526020016060815260200160008152602001600073ffffffffffffffffffffffffffffffffffffffff1681525090565b5b80821115610c59576000816000905550600101610c41565b5090565b6000610c70610c6b8461129e565b61126d565b905082815260208101848484011115610c8857600080fd5b610c93848285611418565b509392505050565b600081359050610caa81611573565b92915050565b600082601f830112610cc157600080fd5b8135610cd1848260208601610c5d565b91505092915050565b600081359050610ce98161158a565b92915050565b600060208284031215610d0157600080fd5b6000610d0f84828501610c9b565b91505092915050565b600080600060608486031215610d2d57600080fd5b600084013567ffffffffffffffff811115610d4757600080fd5b610d5386828701610cb0565b935050602084013567ffffffffffffffff811115610d7057600080fd5b610d7c86828701610cb0565b9250506040610d8d86828701610cda565b9150509250925092565b600060208284031215610da957600080fd5b6000610db784828501610cda565b91505092915050565b6000610dcc838361101d565b905092915050565b610ddd816113d0565b82525050565b610dec816113d0565b82525050565b610dfb816113be565b82525050565b6000610e0c826112de565b610e168185611301565b935083602082028501610e28856112ce565b8060005b85811015610e645784840389528151610e458582610dc0565b9450610e50836112f4565b925060208a01995050600181019050610e2c565b50829750879550505050505092915050565b610e7f816113e2565b82525050565b6000610e90826112e9565b610e9a8185611312565b9350610eaa818560208601611427565b610eb381611562565b840191505092915050565b6000610ec9826112e9565b610ed38185611323565b9350610ee3818560208601611427565b610eec81611562565b840191505092915050565b6000610f04601583611323565b91507f496e76616c6964206c65637475726520707269636500000000000000000000006000830152602082019050919050565b6000610f44601283611323565b91507f496e73756666696369656e742066756e647300000000000000000000000000006000830152602082019050919050565b6000610f84602483611323565b91507f4f6e6c792074656163686572732063616e2063616c6c20746869732066756e6360008301527f74696f6e000000000000000000000000000000000000000000000000000000006020830152604082019050919050565b6000610fea601283611323565b91507f496e76616c6964206c65637475726520494400000000000000000000000000006000830152602082019050919050565b600060a083016000830151611035600086018261109a565b506020830151848203602086015261104d8282610e85565b915050604083015184820360408601526110678282610e85565b915050606083015161107c606086018261109a565b50608083015161108f6080860182610dd4565b508091505092915050565b6110a38161140e565b82525050565b6110b28161140e565b82525050565b600060208201905081810360008301526110d28184610e01565b905092915050565b60006020820190506110ef6000830184610e76565b92915050565b6000602082019050818103600083015261110e81610ef7565b9050919050565b6000602082019050818103600083015261112e81610f37565b9050919050565b6000602082019050818103600083015261114e81610f77565b9050919050565b6000602082019050818103600083015261116e81610fdd565b9050919050565b600060208201905061118a60008301846110a9565b92915050565b60006040820190506111a560008301856110a9565b6111b26020830184610df2565b9392505050565b60006080820190506111ce60008301876110a9565b81810360208301526111e08186610ebe565b905081810360408301526111f48185610ebe565b905061120360608301846110a9565b95945050505050565b600060a08201905061122160008301886110a9565b81810360208301526112338187610ebe565b905081810360408301526112478186610ebe565b905061125660608301856110a9565b6112636080830184610de3565b9695505050505050565b6000604051905081810181811067ffffffffffffffff8211171561129457611293611533565b5b8060405250919050565b600067ffffffffffffffff8211156112b9576112b8611533565b5b601f19601f8301169050602081019050919050565b6000819050602082019050919050565b600081519050919050565b600081519050919050565b6000602082019050919050565b600082825260208201905092915050565b600082825260208201905092915050565b600082825260208201905092915050565b600061133f8261140e565b915061134a8361140e565b9250827fffffffffffffffffffffffffffffffffffffffffffffffffffffffffffffffff0382111561137f5761137e6114d5565b5b828201905092915050565b60006113958261140e565b91506113a08361140e565b9250828210156113b3576113b26114d5565b5b828203905092915050565b60006113c9826113ee565b9050919050565b60006113db826113ee565b9050919050565b60008115159050919050565b600073ffffffffffffffffffffffffffffffffffffffff82169050919050565b6000819050919050565b82818337600083830152505050565b60005b8381101561144557808201518184015260208101905061142a565b83811115611454576000848401525b50505050565b6000600282049050600182168061147257607f821691505b6020821081141561148657611485611504565b5b50919050565b60006114978261140e565b91507fffffffffffffffffffffffffffffffffffffffffffffffffffffffffffffffff8214156114ca576114c96114d5565b5b600182019050919050565b7f4e487b7100000000000000000000000000000000000000000000000000000000600052601160045260246000fd5b7f4e487b7100000000000000000000000000000000000000000000000000000000600052602260045260246000fd5b7f4e487b7100000000000000000000000000000000000000000000000000000000600052604160045260246000fd5b6000601f19601f8301169050919050565b61157c816113be565b811461158757600080fd5b50565b6115938161140e565b811461159e57600080fd5b5056fea26469706673582212209172b42e43af5b3da3b9f6c2f0464d0974d79115cc65fff2bc80df093bcf0e1d64736f6c63430008000033",
  "immutableReferences": {},
  "source": "// SPDX-License-Identifier: MIT\npragma solidity ^0.8.0;\n\ncontract LectureDApp {\n    mapping(address => bool) public isTeacher;\n    mapping(address => uint) public userBalances; // New mapping to store user balances\n\n    uint public lectureCount = 0;\n    mapping(uint => Lecture) public lectures;\n\n    event LectureUploaded(uint id, string link, string information, uint price);\n    event LecturePurchased(uint id, address buyer);\n\n    modifier onlyTeacher() {\n        require(isTeacher[msg.sender], \"Only teachers can call this function\");\n        _;\n    }\n\n    constructor() {\n        isTeacher[msg.sender] = true;\n    }\n\n    function addTeacher(address _teacher) public onlyTeacher {\n        isTeacher[_teacher] = true;\n    }\n\n    function uploadLecture(string memory _link, string memory _information, uint _price) public onlyTeacher {\n    emit LectureUploaded(++lectureCount, _link, _information, _price);\n\n    // Set teacher to the deployer's address\n    lectures[lectureCount] = Lecture(lectureCount, _link, _information, _price, payable(msg.sender));\n    // Update the teacher field in the Lecture struct\n    lectures[lectureCount].teacher = payable(msg.sender);\n}\n\n\n    function viewAvailableLectures() public view returns (Lecture[] memory) {\n        Lecture[] memory allLectures = new Lecture[](lectureCount);\n        for (uint i = 1; i <= lectureCount; i++) {\n            allLectures[i - 1] = lectures[i];\n        }\n        return allLectures;\n    }\n\n    function purchaseLecture(uint _id) public payable {\n        require(_id > 0 && _id <= lectureCount, \"Invalid lecture ID\");\n\n        Lecture storage lecture = lectures[_id];\n        require(lecture.price > 0, \"Invalid lecture price\");\n        require(msg.value >= lecture.price, \"Insufficient funds\");\n\n        // Transfer funds to the teacher\n        lecture.teacher.transfer(lecture.price);\n\n        // Add the ether to the teacher's balance\n        userBalances[lecture.teacher] += lecture.price;\n\n        emit LecturePurchased(_id, msg.sender);\n    }\n\n    struct Lecture {\n        uint id;\n        string link;\n        string information;\n        uint price;\n        address payable teacher;\n    }\n}\n",
  "sourcePath": "/Users/pijussadauskas/my-contract/contracts/LectureDApp.sol",
  "compiler": {
    "name": "solc",
    "version": "0.8.0+commit.c7dfd78e.Emscripten.clang"
  },
  "schemaVersion": "3.4.16",
  "updatedAt": "2024-01-04T00:19:33.648Z",
  "networkType": "ethereum",
  "devdoc": {
    "kind": "dev",
    "methods": {},
    "version": 1
  },
  "userdoc": {
    "kind": "user",
    "methods": {},
    "version": 1
  }
}